:100000000C9462000C948A000C948A000C948A0070
:100010000C948A000C948A000C948A000C948A0038
:100020000C948A000C948A000C948A000C948A0028
:100030000C948A000C948A000C948A000C948A0018
:100040000C94C4020C948A000C948A000C948A00CC
:100050000C948A000C948A000C948A000C948A00F8
:100060000C948A000C948A000000000023002600F3
:10007000290000000000240027002A0000000000E2
:10008000250028002B0004040404040404040202D4
:100090000202020203030303030301020408102007
:1000A0004080010204081020010204081020000012
:1000B0000008000201000003040700000000000027
:1000C0000000DC0311241FBECFEFD8E0DEBFCDBFA0
:1000D00011E0A0E0B1E0E4E0F8E002C005900D928C
:1000E000A833B107D9F721E0A8E3B1E001C01D9220
:1000F000AB35B207E1F710E0C2E6D0E004C02197CB
:10010000FE010E94FA03C136D107C9F70E940E030F
:100110000C9400040C940000833081F028F48130AA
:1001200099F08230A9F008958730A9F08830C9F09D
:100130008430B1F4809180008F7D03C08091800075
:100140008F7780938000089584B58F7784BD08955C
:1001500084B58F7DFBCF8091B0008F778093B00006
:1001600008958091B0008F7DF9CF1F93CF93DF93D7
:10017000282F30E0F901E255FF4F8491F901E6564E
:10018000FF4FD491F901EA57FF4FC491CC23A9F056
:10019000162F81110E948C00EC2FF0E0EE0FFF1F54
:1001A000E458FF4FA591B4918FB7F894EC911111D9
:1001B00008C0D095DE23DC938FBFDF91CF911F91D4
:1001C0000895DE2BF8CFCF93DF9390E0FC01E65645
:1001D000FF4F24918A579F4FFC0184918823D1F0CF
:1001E00090E0880F991FFC01EE58FF4FA591B49144
:1001F000FC01E458FF4FC591D49161110EC09FB727
:10020000F8948C91E22FE0958E238C932881E22341
:10021000E8839FBFDF91CF9108958FB7F894EC9159
:10022000E22BEC938FBFF6CF3FB7F89480913F015C
:1002300090914001A0914101B091420126B5A89B47
:1002400005C02F3F19F00196A11DB11D3FBFBA2F68
:10025000A92F982F8827BC01CD01620F711D811D28
:10026000911D42E0660F771F881F991F4A95D1F7AD
:100270000895AF92BF92CF92DF92EF92FF920F93C9
:100280001F93CF93DF936C017B018B01040F151F2C
:10029000EB015E01AE18BF08C017D10759F0699194
:1002A000D601ED91FC910190F081E02DC6010995F8
:1002B000892B79F7C501DF91CF911F910F91FF90A5
:1002C000EF90DF90CF90BF90AF900895089590E0A9
:1002D00080E00895CF93DF93EC0160E08E810E946F
:1002E000B50061E08E810E94B50060E08E810E94C1
:1002F000B5008BE891E00197F1F7DF91CF91089578
:10030000CF92DF92EF92FF920F931F93CF93DF93E1
:100310006C017C0187E0E80EF11CD0E0C0E0062F04
:1003200010E0B8010C2E02C0759567950A94E2F7AB
:100330006170F70181917F010E94B5002196C43060
:10034000D10579F7C601DF91CF911F910F91FF90F1
:10035000EF90DF90CF900C946A01CF92DF92EF92F2
:10036000FF920F931F93CF93DF93EC01F62E642F30
:100370008C810E94B5008D818F3F19F060E00E9452
:10038000B5000F2D10E08F8584FF25C06E0187E03A
:10039000C80ED11CF12CE12CB8010E2C02C07595B1
:1003A00067950A94E2F76170F60181916F010E94EE
:1003B000B500FFEFEF1AFF0A88E0E816F10461F7D5
:1003C000CE01DF91CF911F910F91FF90EF90DF90C1
:1003D000CF900C946A01B80184E0759567958A9571
:1003E000E1F7CE010E9480016F2DCE01DF91CF9108
:1003F0001F910F91FF90EF90DF90CF900C948001B0
:1004000040E061E083E491E00E94AD018BE39FE175
:100410000197F1F70895CF93DF93823029F49091FB
:1004200052019860909352018093560110925701A7
:1004300080E48093580180E18093590180E58093A6
:100440005A0161E0809147010E94E30080914801D8
:100450008F3F19F061E00E94E30061E08091490163
:100460000E94E300C3E4D1E09E0123543140809117
:10047000520184FD0BC084E090E0219628173907D3
:1004800044F461E08E810E94E300EECF88E090E0CA
:10049000F4CF8BE39DE00197F1F760E08091470195
:1004A0000E94B50060E0809149010E94B5008091F2
:1004B00048018F3F19F060E00E94B5006091520141
:1004C00064FD3DC063E083E491E00E948001CBE4E1
:1004D000D6E4CE010197F1F763E083E491E00E9456
:1004E00080012197F1F763E083E491E00E948001AD
:1004F00083E592E00197F1F762E083E491E00E94E6
:10050000800160915201606240E083E491E00E94CA
:10051000AD0184E08093530140E06CE083E491E01E
:100520000E94AD010E94000282E08093540140E0ED
:1005300066E083E491E0DF91CF910C94AD016062BD
:1005400040E083E491E00E94AD018BE496E40197E2
:10055000F1F760915201606240E083E491E00E9413
:10056000AD0183E592E00197F1F76091520160627D
:1005700040E083E491E00E94AD01C3CF41E00E94DE
:10058000AD0181E090E008951F920F920FB60F9297
:1005900011242F933F938F939F93AF93BF93809199
:1005A0003B0190913C01A0913D01B0913E01309101
:1005B0003A0123E0230F2D3758F50196A11DB11DF7
:1005C00020933A0180933B0190933C01A0933D011D
:1005D000B0933E0180913F0190914001A091410173
:1005E000B09142010196A11DB11D80933F019093EE
:1005F0004001A0934101B0934201BF91AF919F91FF
:100600008F913F912F910F900FBE0F901F901895D3
:1006100026E8230F0296A11DB11DD2CF789484B590
:10062000826084BD84B5816084BD85B5826085BDEE
:1006300085B5816085BD80916E00816080936E007C
:10064000109281008091810082608093810080916E
:10065000810081608093810080918000816080931F
:1006600080008091B10084608093B1008091B000DF
:1006700081608093B00080917A00846080937A00DA
:1006800080917A00826080937A0080917A00816004
:1006900080937A0080917A00806880937A0010922B
:1006A000C10060E083E00E94E30082E00E940B0250
:1006B00040E150E06CE071E083E491E00E94390198
:1006C0000E9414014B015C0140EDC42E47E0D42E82
:1006D000E12CF12C0E941401681979098A099B09FF
:1006E000683E734081059105A8F321E0C21AD10844
:1006F000E108F10888EE880E83E0981EA11CB11C69
:10070000C114D104E104F10429F70E940002C1EBF5
:10071000D0E00DE910E099E8E92E90E0F92E20E014
:10072000C22E20E0D22EAA24A394B12CFE018491E3
:10073000F8019490F7018490882019F181110E94AA
:100740008C00E82DF0E0EE0FFF1FE859FF4FA59158
:10075000B4912C918091380190913901922289F0C5
:10076000019719F50E94000249E050E06EE271E045
:1007700083E491E00E94390110923901109238010E
:1007800014C08091380190913901892B71F40E9435
:10079000000240E150E06DE171E083E491E00E94ED
:1007A0003901B0923901A0923801C114D10409F481
:1007B000BDCF0E940000BACFE3E4F1E013821282C1
:1007C00084E091E0918380838CE084838FEF858344
:1007D0008BE0868387E0878386E0808785E081875A
:1007E00084E082871386148615861686178681E034
:1007F0000C940B02EE0FFF1F0590F491E02D09946D
:04080000F894FFCF9A
:1008040000000000BE023901670166015049522010
:1008140053656E736F72205265616479004D6F7415
:10082400696F6E20446574656374656421004E6F5E
:08083400204D6F74696F6E0026
:00000001FF
